:0200000490006A
:10000000B8B4012075040090F775009075670090F2
:10001000F57500902D2F0090C59100900000000014
:10002000000000000000000000000000B10300908C
:100030009D390090000000000D040090617D00904B
:100040008F0400908F0400908F0400908F04009024
:100050008F0400908F0400908F0400908F04009014
:100060008F0400908F0400908F0400908F04009004
:100070008F0400908F0400908F0400908F040090F4
:100080008F0400908F0400908F0400908F040090E4
:100090008F0400908F0400908F0400908F040090D4
:1000A0008F0400908F0400908F0400908F040090C4
:1000B0008F0400908F0400908F0400908F040090B4
:1000C0008F0400908F0400908F0400908F040090A4
:1000D0008F0400908F040090AD910090B991009032
:1000E0008F0400908F040090000000008F040090A7
:1000F0008F0400908F0400908F0400908F04009074
:100100008F0400908F0400908F0400908F04009063
:100110008F0400908F040090E58000908F04009081
:100120008F0400908F0400908F0400908F04009043
:100130008F0400908F0400908F0400908F04009033
:1001400000000000000000000000000000000000AF
:100150008F0400908F0400908F0400908F04009013
:100160008F0400908F0400908F0400908F04009003
:100170008F0400908F0400908F0400908F040090F3
:100180008F0400908F0400908F0400908F040090E3
:100190008F0400908F0400908F0400908F040090D3
:1001A0008F0400908F0400908F0400908F040090C3
:1001B0008F0400908F0400908F0400908F040090B3
:1001C0008F0400908F0400908F0400908F040090A3
:1001D0008F0400908F0400908F0400908F04009093
:1001E0008F0400908F0400908F0400908F04009083
:1001F0008F0400908F0400908F0400908F04009073
:100200008F0400908F0400908F0400908F04009062
:100210008F0400908F0400908F0400908F04009052
:100220008F0400908F0400908F0400900000000065
:100230008F0400908F040090000000008F04009055
:100240008F0400908F0400908F0400908F04009022
:100250008F0400908F0400908F0400908F04009012
:100260008F0400908F0400908F0400908F04009002
:100270008F0400908F0400908F0400900000000015
:100280008F0400908F0400908F0400900000000005
:10029000000000008F04009000F002F800F079F8F0
:1002A0000AA090E8000C82448344AAF10107DA45D1
:1002B00001D100F06EF8AFF2090EBAE80F0013F0AA
:1002C000010F18BFFB1A43F001031847B4F10800EF
:1002D000D4F108000A444FF0000C10F8013B13F071
:1002E000070408BF10F8014B1D1108BF10F8015B8F
:1002F000641E05D010F8016B641E01F8016BF9D182
:1003000013F0080F1EBF10F8014BAD1C0C1B09D1D8
:100310006D1E58BF01F801CBFAD505E014F8016B4A
:1003200001F8016B6D1EF9D59142D6D370470000DC
:100330000023002400250026103A28BF78C1FBD8EE
:10034000520728BF30C148BF0B607047662933F0A1
:100350009F80642900F0E081732901F00C80002067
:1003600070471FB533F08CF89DE8030000F022FDC4
:1003700001F014F904000020002133F063F8401C60
:1003800060600020002133F047F8E0601FBD10B529
:1003900010BD01F059FC1146FFF7E3FF28F096FC71
:1003A00001F0F4FE03B4FFF7F2FF03BC0AF0CEFD48
:1003B0002D4B19680868B0E8F04F80F30988BFF347
:1003C0006F8F4FF0000080F311887047000000002D
:1003D00008480068006880F308884FF0000080F348
:1003E000148862B661B6BFF34F8FBFF36F8F00DF23
:1003F00000BF00BF08ED00E0DFF80C00016841F429
:1004000070010160704700BF88ED00E0EFF30980E4
:10041000BFF36F8F144B1A681EF0100F08BF20ED4A
:10042000108A20E9F04F106009B44FF0400072B616
:1004300080F31188BFF34F8FBFF36F8F62B632F036
:10044000F5F84FF0000080F3118809BC19680868BE
:10045000B0E8F04F1EF0100F08BFB0EC108A80F328
:100460000988BFF36F8F70479C020020EFF305806F
:10047000704700000948804709480047FEE7FEE74B
:10048000FEE7FEE7FEE7FEE7FEE7FEE7FEE7FEE744
:1004900004480549054A064B70470000697E0090F4
:1004A00099020090B8740120B8B40120B8840120EA
:1004B000B8840120704770B5064600F05BFC056803
:1004C00006F10B0020F00704B4429CBF002070BD71
:1004D0002B466A68BAB11068A04210D304F1080133
:1004E00088423CBF5068586007D35168101941607A
:1004F0001168091B016058601460101D70BD13461F
:100500005268002AE7D12146284600F03FFC002827
:10051000DED170BD70B50446051F00F02BFC0068ED
:10052000002C14BF446870BD002C18BFAC423CBF07
:1005300020466468F8D301680A18AA4218BF4560CB
:1005400003D12A6805461144016028684119A14277
:100550001CBF6C6070BD61686960216808442860D8
:1005600070BD53EA020C00F069802DE9F04B4FF0AA
:100570000006002B1FBFB3FA83F503FA05F424FA33
:1005800005F65E4012BF1643B2FA82F502FA05F490
:10059000C5F120051EBF22FA05FC44EA0C042035F3
:1005A00056EA044C4FEA144418BF641C4FF000088C
:1005B0004FF00009904271EB030C39D3002919BFA9
:1005C000B1FA81F701FA07F6B0FA80F700FA07F6F8
:1005D000C7F120071EBF20FA07FC46EA0C062037A9
:1005E000B6FBF4FCA7EB0507103F07F01F0BCBF1A0
:1005F00020060CFA0BFB2CFA06F644BFB346002685
:10060000202FA4BF5E464FF0000B5BEA060C08BF2C
:100610004FF0010B19EB0B09ABFB027C48EB060812
:10062000C01B06FB02CC0BFB03CC71EB0C01C1E73A
:100630000B46024641464846BDE8F08B13B54FF0E5
:1006400000004FF00001AFF30080BDE81C40704790
:100650000FB4044910B503AA029800F091FE10BC33
:100660005DF814FB8C0000200FB41CB5074B06AAE4
:100670007B4469460090059800F04BFE00206946D7
:1006800000F05AFE1CBC5DF814FB0000C50C000015
:100690000FB41CB50C0007AA009001D02044401EE6
:1006A000074B7B4469460190069800F032FE002C0F
:1006B00003D06946002000F03FFE1CBC5DF814FB2F
:1006C0009D0C000070B50C460546012A05D028781F
:1006D000800600D5EA69002302E0012305E05B1CE7
:1006E000934202D2E05C0028F9D1A869E618C01A4A
:1006F000A861286A184428622846AFF3008004E005
:10070000D5E9012114F8010B9047B442F8D32846EB
:10071000AFF3008070BD00002DE9F04106460024D3
:1007200010687529314616A510D0AFF30080002857
:1007300002DA404213A507E031688A0701D512A505
:1007400002E0490704D511A5012401E0AFF30080C0
:1007500000210A2206F1240709E0B0FBF2FCB0FBFD
:10076000F2F302FB1C00303078541846491C002874
:10077000F3D123462A463046BDE8F04100F05BBB8A
:10078000000000002D0000002B00000020000000F1
:100790002DE9F05F894604464FF0000ADFF824B1E6
:1007A000FB44C0F820A02046E168884700287DD09F
:1007B000252806D0D4E901219047206A401C2062F8
:1007C000F1E700255F462046E16888472028064675
:1007D00007DB312E05D2B81910F8200C08B10543FB
:1007E000F1E7A80701D525F00405C4F81CA00027EF
:1007F000C4F818A02A2E09D0304608F043FE38B3BA
:1008000004EB8708303EC8F8186019E059F8041B5B
:10081000204604EB87029161E1688847012F064674
:1008200018D1E069002820DA25F020051DE0D8F86D
:10083000180000EB800006EB40003038C8F81800C4
:100840002046E1688847064608F01CFE0028EED1E5
:10085000012F0AD02E2E08D12046E16888477F1C40
:100860000646022F45F02005C4DBA069002803DA04
:10087000404245F00105A061E80701D025F01005D0
:10088000A6B1A6F14100192802D8203645F400652A
:100890004A463146204625604D46FFF757FD60B178
:1008A000012807D0ED1D25F0070000E007E000F16A
:1008B000080978E705F1040975E730467AE7206A08
:1008C000BDE8F09FFCE308000FB400B58DB010A99F
:1008D000099000910B904FF0FF300A9000200C908F
:1008E000064878440690064878446A4607900F996F
:1008F00009A800F06BFD0DB05DF814FB070B0000BC
:100900001F0B00002DE9FF5F1D464FF0FF3B914696
:100910004FF000085F46D5E90146A96901987F1CA0
:100920008847296A824688470028F6D1BAF1FF3FF6
:100930000CD0002E24F4C06419DD600614D5BAF181
:100940002B0F09D0BAF12D0F0ED103E0584604B099
:10095000BDE8F09F44F48064A96901987F1C884732
:10096000761E8246002E02DDBAF1300F03D0B9F1B7
:10097000000F26D032E0A969761E01987F1C44F44E
:1009800000748847002E824605DDBAF1780F06D044
:10099000BAF1580F03D0B9F1000F10D01EE0B9F131
:1009A000000F02D0B9F1100F18D1A969761E019875
:1009B0007F1C24F4007488478246102002E008203F
:1009C00000E00A20814609E0A96908FB0908761EB3
:1009D00001987F1C44F4007488478246002E05DD90
:1009E0004946504600F0DEFC0028EDDAE96901983E
:1009F0008847A00502D46FF00100A8E7E00725D1E1
:100A0000600613D5600502D5C8F1000000E040463D
:100A100029680A1D2A600968220501D5087015E0B9
:100A2000220701D5088011E008600FE02868011D49
:100A300029600068210502D580F8008006E02107C2
:100A400002D5A0F8008001E0C0F8008038467EE7BB
:100A500070B5064600F092F90468054630460A2251
:100A6000002100F035FD2C6070BD0000014A00F04F
:100A700067BD00004004002000F062BD401ECAB205
:100A800010F8011F8A4202D00029F9D100207047D6
:100A900010B5431E13F8014F002CFBD105E011F8EF
:100AA000014B002C03F8014B03D0521EF7D200215A
:100AB000197010BD30B505460B462A4613F8014B98
:100AC00012F8010B08B1A042F8D01CB1002802D0E6
:100AD0006D1CF1E7284630BD40EA0103024630B5FF
:100AE0009B0710D14FF0013400E008C208C91D1B5C
:100AF0009D4315EAC41FF8D013F0FF0102F8011B53
:100B00000DD01B0AF8E711F8013B002B02F8013B5E
:100B100005D011F8013B002B02F8013BF3D130BDA9
:100B20000022CBB210F8011B994200D1421E0029CD
:100B3000F8D11046704710B5431C02E010F8011BB5
:100B400071B18107FAD14FF0013202C88C1A8C437F
:100B500014EAC211F9D0C01A0A0603D0C01E10BD93
:100B6000C01A10BD0A0401D0801E10BD0902FCD0BD
:100B7000401E10BD032A40F2308010F0030C00F03C
:100B8000158011F8013BBCF1020F624498BF11F8C7
:100B900001CB00F8013B38BF11F8013BA2F1040280
:100BA00098BF00F801CB38BF00F8013B11F00303F8
:100BB00000F02580083AC0F0088051F8043B083A5C
:100BC00051F804CBA0E80810F5E7121D5CBF51F8FE
:100BD000043B40F8043BAFF30080D20724BF11F878
:100BE000013B11F801CB48BF11F8012B24BF00F8DD
:100BF000013B00F801CB48BF00F8012B704710B54E
:100C0000203AC0F00B80B1E81850203AA0E8185004
:100C1000B1E81850A0E81850BFF4F5AF5FEA027CC5
:100C200024BFB1E81850A0E8185044BF18C918C034
:100C3000BDE810405FEA827C24BF51F8043B40F8D5
:100C4000043B08BF7047D20728BF31F8023B48BFBA
:100C500011F8012B28BF20F8023B48BF00F8012BF8
:100C6000704702F0FF0343EA032242EA024200F027
:100C700002B84FF000020429C0F0128010F0030CFB
:100C800000F01B80CCF1040CBCF1020F18BF00F87F
:100C9000012BA8BF20F8022BA1EB0C0100F00DB82E
:100CA0005FEAC17C24BF00F8012B00F8012B48BF8C
:100CB00000F8012B70474FF0000200B51346944630
:100CC0009646203922BFA0E80C50A0E80C50B1F1A4
:100CD0002001BFF4F7AF090728BFA0E80C5048BFB8
:100CE0000CC05DF804EB890028BF40F8042B08BF56
:100CF000704748BF20F8022B11F0804F18BF00F852
:100D0000012B70474FF0013C50F8042B51F8043B85
:100D10009A4215D1A2EB0C03934313EACC130BD1E7
:100D200050F8042B51F8043B9A4209D1A2EB0C0372
:100D3000934313EACC13E7D04FF00000704700BF95
:100D4000D01A01BAB1FA81F101F0180122FA01F0CA
:100D5000CB40C1F12001DBB2C0B2C01A2CFA01F3C2
:100D6000D11A914311EAC311E6D170477047704719
:100D700070477047004870475C7401200048704716
:100D800054740120704770477047704738B5044667
:100D90000A4600206946AFF30080002808BF38BD2E
:100DA00002460099204600F0FDFB012038BD0120DD
:100DB00000F025BFF8B5AFF30080054600200C46D3
:100DC000102000BF0646A819A0420DD93246694638
:100DD0000020AFF30080070008BF00F010FF00986C
:100DE000A04218BF0546C419FFF7C4FF05600746B7
:100DF000F01D20F007004619284600F00AF8B4421A
:100E000008BFF8BDA21B31463868BDE8F84000F0C5
:100E1000C9BB00210160C0E9011070471020704774
:100E200010B5FFF7ABFF006810BD10B50446FFF723
:100E3000A5FF046010BD2DE9F0470D469946924686
:100E4000044600F124080168880604D5E06921F011
:100E50001001216000E00120A84201DD471B00E0F5
:100E60000027A1697A1902EB0900081AA06120780D
:100E7000C00602D42046AFF30080002608E0D4E983
:100E800001211AF806009047206A401C761C206257
:100E90004E45F4DB2078C0060AD52046AFF300802B
:100EA00006E0D4E9012130209047206A401C2062EE
:100EB000381EA7F10107F4DC07E0D4E9012118F896
:100EC00005009047206A401C2062281EA5F10105FC
:100ED000F3DC2046AFF300802078000602D5022024
:100EE000BDE8F0870120FBE770472DE9FF4F0C4676
:100EF0001E464FF0FF378BB0D2E90001DDF860806D
:100F00000A908A46C1F30A5505B93D4600210846B4
:100F10004FF00000BAF1000F00F4400005DA00EBDA
:100F200080004FF4400101EA50004FEA9059B9F1B6
:100F3000010F00DDB9460A9850EA4A000ED044F687
:100F40001050A5F2FF3545432F14B8F1000F1ED005
:100F50007542291E1EDDC9F100021CE0B8F1010F27
:100F60004FF0000001D0302103E0F24305E02154AE
:100F7000401CB042FBDB30460022002121540B997B
:100F8000C1F80880C1E900200FB0BDE8F08FBD1B9B
:100F90006D1CDEE74A4600DA694206A800F0B4FD9F
:100FA00006AB93E8070003AB83E8070050460A99B5
:100FB00001F073FB8DE80700A0F500501F3800908A
:100FC0000398002D0ADD42F21F014A46084400231F
:100FD00003A90390684601F01FFE09E0A0F5005048
:100FE0004A461F38002303A90390684601F03EFEDD
:100FF0008DE807000004000C03D04FF0FF304108DB
:1010000000E01046B8F1000F03D000220092154610
:101010001EE0751E05D400F0DFFA303262556D1EF9
:10102000F9D5B3460122084302D000227F1C04E018
:101030002078302801D100227F1E002A099784D011
:101040001DE0112D07DA00F0C7FA303262556D1C31
:1010500050EA0102F5D1084302D00098C8B10EE071
:101060000021681E05E0235C625C63542254401E2C
:10107000491C8142F7DBAB46A81B401E09900020AB
:1010800004F80B000B98099AC0F80880C0E9002BFF
:101090007AE711264FF0000857E72DE9F04F884610
:1010A0000446D21D22F0070191B0D1E90001CDE93B
:1010B0000A0108F094F802460B98C00F01D02D20C9
:1010C00007E02068810701D52B2002E0202101EAFA
:1010D000C000032A099001D0072A05DB03464146D8
:1010E000204600F0C7FA0BE12078800601D5E069C0
:1010F00000E00620B8F1650F814606D0B8F1660F12
:1011000018D0B8F1670F70D131E00020B9F1110F9C
:10111000009001DB112301E009F101030AAA01A9F2
:101120000CA8FFF7E2FEDDE90C70002609F10105CD
:10113000834647E001204B4600904FF000470AAA43
:1011400001A90CA8FFF7D1FEDDE90DB00C995D46B1
:10115000002610B909F101000D18B9EB050003D400
:10116000C0F1FF3609F10105A5EB09002BE0B9F14B
:10117000010F01DA4FF001090020B9F1110F0090C1
:10118000484601DD112300E003460AAA01A90CA884
:10119000FFF7ABFEDDE90C704D4600268346207854
:1011A00000070AD4AB4500DA5D4601A8012D04DD35
:1011B000411911F8011C302907D04F4502DA17F107
:1011C000040F04DA012082460FE06D1EEEE7002FC7
:1011D00002DCED1B3E4403E0781CA84200DD7D1CD0
:1011E000B81B00F1010A4FF000472078000703D434
:1011F000AA4501DB4FF0FF3A0021B7F1004F0DF196
:1012000043088DF8431024D002202B23002F01DA4D
:101210007F422D230A21021EA0F1010000DC5FB1F4
:1012200097FBF1FC97FBF1F201FB1C7C17460CF1DC
:10123000300C08F801CDEEE7A8F101000370218819
:10124000090501D5452100E06521A0F1010800F85C
:10125000011C09980FA9A1EB0807FF1D00B101208F
:10126000411901EBEA70A1693844081A401EA061D7
:101270002078C00602D42046AFF30080099828B138
:10128000D4E901219047206A401C20622078C006E2
:1012900022D52046AFF300801EE0002E04DBB345CC
:1012A00002DD01A8805D00E03020D4E901219047F3
:1012B000206A401C2062761CAAF101005FEA000A45
:1012C0000AD100F06BF9C0680168405CD4E90121E3
:1012D0009047206A401C2062281EA5F10105DCDC35
:1012E00007E0D4E9012118F8010B9047206A401C5F
:1012F0002062381EA7F10107F3DC2046AFF300801F
:10130000032011B041E6000001694A1C026108781F
:10131000704700B58FB0CDE9013100210591054935
:101320007944CDE9031011466846FFF731FA0FB052
:1013300000BD0000E5FFFFFF0A6802F8010B0A602C
:101340007047D1E900239A4202D2531C0B601070FF
:10135000704710B5436913B1AFF3008001E0FFF7A8
:10136000B1F9012010BD127800F124010A700022A9
:101370004A700122EDE711684FF0FF32E9E7000003
:10138000074B70B50D467B44FFF7C3FF0446284664
:1013900000F02CFC10B14FF0FF3070BD204670BD46
:1013A000973B01003A2800D2303820F02002412A31
:1013B00001D3A2F13700884201D34FF0FF307047CC
:1013C000026811441378016018467047D1600549DE
:1013D0007944516104497944116200211161114637
:1013E00000F088B9EDFFFFFF89020000426842B1BA
:1013F000016811F8013B23B1521EC0E900121846E2
:1014000070470121C160881E704742685AB1C368A5
:10141000016843B983688B4205D0491E521CC0E95C
:101420000012002070474FF0FF3070470FB40023C8
:1014300000B589B00CA900910B99CB60214B7B447E
:101440000693214B7B44079304236FF00042CDE9C0
:1014500001321E4A7A446B4608920246002032F05E
:1014600079F809B05DF814FB70B506464FF0FF300F
:1014700015460C46324686B00091CDE90101694619
:101480000020049004A8FFF7D1FF02460498211819
:1014900025B108B1084600E02046286004980028DD
:1014A0000DD0002A02DD0098884208D03246081B81
:1014B00069460094CDE9010404A8FFF7B7FF06B020
:1014C00070BD0000ABFFFFFFC3FFFFFF0B0200007A
:1014D0002DE9F04791460F4680460446002614F851
:1014E000015B2DB100F052F80068405DC007F6D1F5
:1014F0002B2D02D02D2D18D0641E4A463946204689
:1015000000F0B2FA27B13968A14201D1C7F80080D2
:101510004FF0020471050BD54042002803DDFFF7B0
:101520002DFC0460A007BDE8F08746F48066E4E780
:101530000028F8DAFFF722FC04606FF00040F2E7C1
:101540002DE9F04115460E46040002D12C6804B97D
:101550000BA4204600F06AFB0444207870B12746B3
:101560003146384600F052FB0444207810B1002088
:1015700004F8010B38462C60BDE8F0810027F9E73C
:1015800000000000004870475474012010B500F0BE
:1015900005F8001D10BD00BFAD1E030000487047D8
:1015A00074740120034640688C46002818BF8842A6
:1015B0003CBF03464068F8D318681844884207D0F7
:1015C0000CF1030020F00700001D411A521A0146D9
:1015D000081D0A60FEF79EBF30B5B0F10A024FEA5F
:1015E000900E71F100034EEA817EB0EB0E0061EBCC
:1015F00091014FEA101E4EEA017E10EB0E0041EB06
:1016000011114FEA102E4EEA016E10EB0E0041EB65
:1016100011214FEA104E4EEA014E10EB0E0041EB45
:101620001141401841F100014FEAD00040EA4170F9
:101630004FEAD10110EB80054FEA810444EA90742F
:1016400044EB01046D1944EB0404521BA3414FF019
:10165000000348BF0A3200D530BD401C41F10001F3
:1016600030BD10B50446FFF791FF0068005D00F043
:10167000010010BD2DE9F0411F4604460326016814
:10168000072A01F4006004DB08B116A505E016A5E1
:1016900003E008B115A500E015A521F010002060B9
:1016A000A069C01EA0610FB1401EA0612046AFF32B
:1016B00000804FB1D4E9012138469047206A401C90
:1016C0002062C01C206206E0206AFAE7D4E901210A
:1016D00015F8010B9047761EF8D22046AFF3008034
:1016E000BDE8F0814E414E006E616E00494E4600ED
:1016F000696E66002DE9F34F4FF0000A0C4656461E
:101700008DB001200C9001F10C000B9062690B98D8
:1017100001219047051E2DD0252D2CD0216A884708
:10172000C0B162690B9801219047216A884700285F
:10173000F7D16269411E0B98904700E0761CA169C1
:101740000D988847216A88470028F7D1E1690D98EC
:101750008847DBE7A1690D988847A842074601D171
:10176000761CD3E7E1690D9888477F1C02D1BAF156
:10177000000F6FD06BE162690B9800273D46394638
:1017800090472A2804D162690B98012190470125CE
:10179000DFF8D08262690B9801219047A0F13001F7
:1017A0000A290AD24745E5DC07EB870100EB410730
:1017B000303FDFD445F01005ECE7E90601D46FF0C7
:1017C00000476C280AD04C2814D0682815D06A2805
:1017D0000DD074281CD07A281AD01DE062690B98AD
:1017E000012190476C2802D045F0040514E045F033
:1017F00002050DE045F020050AE062690B98012121
:101800009047682802D045F0080505E045F40065DA
:1018100062690B9801219047C4E9015765283DD0C2
:1018200019DC58287AD00CDC452837D004DC252870
:1018300026D041289ED131E046282FD0472899D183
:101840002CE05B2877D0612828D063287CD06428DE
:1018500023D15AE0F6E06F2848D008DC66281DD076
:1018600067281BD0692821D06E2816D127E0702860
:1018700045D0732868D0752847D078280DD14DE021
:10188000A1690D988847252805463FF469AFE169AD
:101890000D9888476D1C3FF46AAFD8E00D99234638
:1018A0006A466FF0010031F055FEC5E045F040009A
:1018B00023464FF000026060A80736D43EE0E807F8
:1018C0007FF447AF2068011D21600068290501D51C
:1018D00006701BE7290701D5068017E7A90703D57E
:1018E000F117C0E9006111E706600FE745F040001D
:1018F00023464FF008026060A80716D41EE040F6A9
:101900000E0125EA0100606016E045F04000234624
:101910004FF00A026060A80707D40FE045F04000CE
:101920006060A80708D5234610220D996FF00100CA
:10193000AFF3008080E007E0102223460D996FF09E
:101940000100FEF7DFFF77E04FF0000963284F4604
:10195000C8464B46CB4602D05B2806D038E0E806A6
:1019600001D40120A060012732E06269D4F80CB0F4
:101970000B98012190475E2807D14FF00109494695
:101980006269D4F80CB00B989047216939B90021ED
:101990000A4603AB43F82120491C0829FADBD8B3D7
:1019A000216949B308F1010862690B980121904748
:1019B0005D28F4D1B9F1000F09D0002003A951F836
:1019C0002020D24341F82020401C0828F7DB03AB3D
:1019D0002069002820794FEA40701ED05B462246DD
:1019E000CDF80080CDE901970D9900286FF0010036
:1019F00020DAAFF300801FE0C11703AA00EBD1612A
:101A00004B1121F01F0102EB8302411A13680120E0
:101A1000884003431360C7E719E00D992246002868
:101A20006FF00100009702DAAFF3008004E0AFF33B
:101A3000008001E0AFF3008000280ADA401C06D1E4
:101A40000C9820B14FF0FF300FB0BDE8F08F50463A
:101A5000FAE7E90701D10AF1010A064400200C90D7
:101A600054E60000CCCCCC0C2DE9F05F8246154644
:101A70008B4600270AF10104B9460078302801D0CE
:101A80009DB113E014F8010B0127782803D05828E2
:101A900001D045B10AE00DB1102D07D1002714F88F
:101AA000010B102502E0082500E00A250026B046BB
:101AB0000EE005FB080005FB06F101271FFA80F880
:101AC00001EB1046B6F5803F00D3B94614F8010B80
:101AD0002946FFF767FC0028EBDABBF1000F05D0C1
:101AE0000FB1641E00E05446CBF80040B9F1000F7E
:101AF00006D0FFF743F902210160C81EBDE8F09F40
:101B000048EA0640FAE700002DE9F047814616460C
:101B10008AB0354878440DC88DE80D0032487844C5
:101B2000801C03AC0DC884E80D0041F69B300844CE
:101B3000372190FBF1F290FBF1F5A5F1800501FB57
:101B400012041B3C02D56442012000E00020DFF8B3
:101B500098A080460027FA44AAF1BE0A0EE0E007EA
:101B60000AD03246684607EB470101230AEB8101A0
:101B700001F07CF88DE8070064107F1C002CEED18A
:101B8000194F7F44AE3F19E0E80715D007EB04106A
:101B90000DF1180A90E80E008AE80E00C068F042C5
:101BA00001D1981908903246012306A903A801F033
:101BB0005DF803AB83E807006D10641C002DE3D1D2
:101BC0004FF0010332466946B8F1000F03A802D076
:101BD00001F022F801E001F049F8C9E90001C9F873
:101BE00008200AB0BDE8F08718D10800007B00F09B
:101BF00080007047002801D009F0A8B9704710B5DF
:101C000000F0E6FABDE81040FFF7F4BF30B5034638
:101C10001D781DB10A4603E0AC4201D1181A30BD4F
:101C200012F8014B002CF7D15B1CF1E730B50346ED
:101C30001D783DB10A4612F8014B1CB1AC42FAD1F5
:101C40005B1CF5E7181A30BD7546FFF79BFCAE46E6
:101C500005006946534620F00700854618B020B5B8
:101C6000FEF716FCBDE820404FF000064FF00007DD
:101C70004FF000084FF0000B21F00701AC46ACE834
:101C8000C009ACE8C009ACE8C009ACE8C0098D46A1
:101C9000704700002DE9FF4F06468BB00878FF28FB
:101CA00006D0491C2D2805D000244FF0000908E07B
:101CB00000200CE00124F8E709EB8903491C00EB44
:101CC00043090878FF28F7D114B1C9F10000814613
:101CD000107800252C46AA4629462D2801D02B280D
:101CE00004D1521C2D2813D0002082468B46107838
:101CF000FF280FD04FF0000C0A21521CA5FB0178E1
:101D000004FB018105FB0C11C5194BEB0104EEE747
:101D10000120EAE7002108464FF00000BAF1000F69
:101D200002D000EB80004008C0F38157012F01DD95
:101D30004FF0FF370E9955EA040009EB01080BD06C
:101D40004FF0020918F5FA7F16DA4FEACA70002F31
:101D5000706008DD012007E04FEACA70C6E900B0F4
:101D60000FB0BDE8F08F00203060FFF707F8C0F833
:101D700000901821084616E0B8F5FA7F18DD002F0C
:101D800002DAF748784401E0F6487844D0E90010D8
:101D9000C6E9001040EACA707060FEF7EFFFC0F8B5
:101DA0000090142108460FB0BDE8F04F31F06DBB34
:101DB000002108464FF00000B8F10001099002DA56
:101DC000C7F1000200E03A4601DAC8F1000106A8B6
:101DD000FFF79AFE06AB93E8070003AB83E8070022
:101DE00044F23E005BEA04010090584604D144F2FC
:101DF0001E012C465D460091210C0904014306D1C9
:101E00000099240444EA15442D041039009104F08B
:101E10007F41014306D10099240244EA15642D0252
:101E20000839009104F07041014306D10099240162
:101E300044EA15742D01091F009104F0404101434B
:101E400006D10099A40044EA9574AD00891E009162
:101E500004F00041084304D100986D196441401E0C
:101E600000904FF001033A466846B8F1000FCDE903
:101E7000014503A902DD00F00EFF01E000F0E1FEE4
:101E8000BAF1000F04460D4601D084F00044002151
:101E900008464FF00000099940F2FF77484010F0E3
:101EA0000C0F07D124F00040284303D0C4F30A509C
:101EB000B84212D1FEF762FFC0F80090C4F30A5096
:101EC000B8420AD1A8487844D0E90010C6E9001009
:101ED00004F000410843706042E7C6E900543FE760
:101EE0002DE9FF4F1F464FF0000A4FF0FF384546DF
:101EF00091B0D7E90146CDF83CA0FFF74FFBC06891
:101F00000168405C1090B96912986D1C8847396A65
:101F1000814688470028F6D1B9F1FF3F0AD0002E4C
:101F200024F4D06411DDB9F12B0F08D0B9F12D0FD5
:101F30000BD102E0404615B013E744F48064B96960
:101F400012986D1C8847761E8146600504A901D54C
:101F50002D2000E02B20002E01F1010B0DF13008A7
:101F60008DF810003FDDB9F1690F08D0B9F1490FC4
:101F700005D0B9F16E0F02D0B9F14E0F1CD13B461E
:101F800001A8009580E85002DDE912126FF002000E
:101F900031F0E4FAC11CCED10EE0B96912986D1C83
:101FA000884781461398761E44F4007405600F98A4
:101FB000401C002E0F9016DDB9F1300FEDD0B9F1B5
:101FC000780F02D0B9F1580F0DD10F9801280AD11E
:101FD0003B46CDE90054DDE91212001F029631F0B4
:101FE000BBFAC11CA7D1109989453ED144F08004A9
:101FF00006E01399681CAAF1010A44F40074086011
:10200000B9696D1C1298761E884730288146F0D039
:102010002BE01099894505D1200603D4761E44F0A3
:10202000800418E0484607F02DFA08B3761E0DF13B
:1020300023018B4544F4007408D2A9F130000BF859
:10204000010B200607D5AAF1010003E0200602D407
:102050000AF101008246A00502D51399681C0860A8
:10206000B96912986D1C88478146002ED1DC53E077
:10207000002E51DDB9F1650F02D0B9F1450F4BD1FA
:10208000A00549D5B9696D1C1298761E24F44074D8
:102090008847002E81460CDD2B2804D0B9F12D0F86
:1020A00007D144F48074B96912986D1C8847761E74
:1020B0008146E00501D52D2100E02B2108F8011B08
:1020C000CDF8008021E0761E0DF13901884544F4F9
:1020D00000740CD2A9F1300010F0FF0088F8000065
:1020E00002D10099884509D908F1010806E0E00508
:1020F00001D51E4801E042F20F708246B96912987C
:102100006D1C8847814613980560002E04DD484603
:1021100007F0B8F90028D6D1F96912988847FF204E
:1021200053468BF8000088F8000000200A900B90BE
:1021300004AA0CA90AA8FFF7ADFDA00502D46FF010
:102140000100F8E614F0240F12D0E0071CD1386823
:10215000DDE90A12031D3B600068C0E9001213E0CC
:1021600020D7080012D70800D6D50800F1D8FFFF05
:102170000AA9684607F000F9E00705D13868009A17
:10218000011D3960006802602846D4E610B5044697
:10219000AFF300802046BDE81040FEF703B970B5EC
:1021A00005460C460A2000E06D1C08F0D0FE35B153
:1021B00028780028F8D102E0641C08F0C8FE14B1A9
:1021C00020780028F8D1BDE870400A2008F0BFBE92
:1021D00010B5012805D0002103A0FFF7E0FF012082
:1021E00010BD09A1F8E7000053494752544D454D31
:1021F0003A204F7574206F662068656170206D65A8
:102200006D6F7279000000003A2048656170206DA2
:10221000656D6F727920636F72727570746564009A
:102220002DE9FF4F1F464FF03C0987B04FF00042A9
:10223000DDE9141001F10108DDF858A002EA405070
:102240000390002005908346054604460490B96932
:10225000461E08988847AAF1010A0290BAF1000FB9
:102260003BDD02982E2815D01021FFF79BF800289F
:102270002EDB4FF0010B0599014317D0B9F1000F88
:102280000BDB4A46C11700F0F5F905430C43A9F1F1
:10229000040905E0012004900BE008B145F00105B8
:1022A00001200590049820B9361D02E0049800B181
:1022B000361FB969089808F101088847BBF1000F7B
:1022C000AAF1010A0290C9D00999C1F80080C5E7B6
:1022D0000298702808D0502806D0F96908988847D5
:1022E000BBF1000F14D04FE0002002900120BBF1A1
:1022F000000F049009D0B969089808F101088847CF
:10230000AAF10109B9F1000F07DCF96908988847BB
:102310006FF001000BB0BDE8F08F2B2804D02D2802
:102320000CD14FF0FF300490B969089808F101080A
:102330008847A9F10109B9F1000FE6DD411CE4D09D
:102340000A21FFF72FF80028DFDB029908F10108C6
:1023500001EB810100EB41000290B96908988847C0
:102360000A21FFF71FF8099AA9F10109B9F1000F35
:10237000C2F8008001DD0028E7DAF969089888478B
:102380000499029800FB016655EA040004D004F0A9
:102390004041090002D006E0039898E0A40044EA16
:1023A0009574AD00B61E04F00041080002D16D190D
:1023B0006441761E159810F0240F03D04FF00B09DE
:1023C0005C4803E04FF028096FF07D0082465645D7
:1023D00007DAAAEB06018944B9F1410F01DD4FF09C
:1023E000410901200021A9F1010200F043F9024650
:1023F00028400B462140084301D0012100E0002184
:10240000501E029143F1FF3128402140084301D082
:10241000012000E000200299834651EA0B014FD0D1
:10242000002108464FF00000039900F4400039B144
:1024300000EB80004FF4400100EBD07001EA600037
:102440008015012802DD4FF0FF3000E013D0401C62
:1024500036D0029860B3BBF1000F0CD14A46012080
:10246000002100F007F928402140084301D0012055
:1024700000E00020E0B101204A46002100F0FAF817
:10248000034640190A4661412D1A8C4111D3B9F116
:10249000400F09DD159810F0240F02D0AAF1340680
:1024A00003E0AAF1170600E0761C00254FF0004477
:1024B00006E05B1E42F1FF3220EA030521EA020436
:1024C000CAF10100B04206DA1B49039808430190A3
:1024D000002000900EE0039AC4F3D321E80A0A43D7
:1024E000164940EA44500A433146CDE900026846A5
:1024F00006F04EFF159810F0240F0BD01598C0076A
:1025000015D13868DDE90012031D3B600068C0E9A1
:1025100000120CE002A8694606F02EFF1598C007CD
:1025200005D13868029A011D396000680260404692
:10253000F0E6000002FCFFFF0000F07F0000F03F2B
:102540002DE9FF4F92461D4685B04FF00041DDE971
:10255000124BDDE914727F1E01EA4B50414940F0F5
:10256000FF4940EA0108002122F020004928049197
:1025700002D04E2828D04CE03BA0012607C88DE8A9
:102580000700A9690698641C88477F1E014606D487
:102590001DF8060018B121F0200181420BD0E96935
:1025A00006988847032E34D0082E32D06FF00100F1
:1025B00009B0BDE8F08F761C032E01D0082EE0D1C3
:1025C000601CCAF80000DCE7A9690698641C88470B
:1025D0007F1E2AD420F02000412826D1A969069820
:1025E000641C88477F1E20D420F020004E281CD178
:1025F000A9690698641C88477F1E48F4002849F49E
:102600008009CAF8004001D4282806D0E969069854
:1026100088475FEACB7012D022E0A9690698641C53
:1026200088477F1E01D4002803DAE96906988847A5
:10263000BCE72928F1D1641CCAF80040E9E71BF087
:10264000240F07D028680499031D2B600068C0E997
:10265000001805E02868021D2A600068C0F8009094
:102660002046A5E70000F07F494E46494E4954599F
:1026700000000000B2F120030AD5C2F1200301FAE4
:1026800002F120FA03F300FA02F041EA0301704775
:1026900000FA03F14FF0000070475FEA400C08BFFA
:1026A00091F0000F4FEA8C234FEAC12243EA5151C7
:1026B0004FEA1C5018BF00F5F0404FEA300018BF39
:1026C00041F000415FEA6C5C00F02980BCF1FF3F03
:1026D00008BF40F080407047130C06BF12044FF053
:1026E000100C4FF0000C130E04BF12020CF1080C7A
:1026F000130F04BF12010CF1040C930F04BF9200DE
:102700000CF1020CD30F04BF52000CF1010C114666
:102710004FF00002A0F11F00A0EB0C00704711F079
:10272000004F08BF704731F000413FF4D5AF0B0CAC
:1027300006BF09044FF0100C4FF0000C0B0E04BF45
:1027400009020CF1080C0B0F04BF09010CF1040C79
:102750008B0F04BF89000CF1020CCB0F04BF4900A2
:102760000CF1010CCCF12003A0EB0C0022FA03F3D6
:1027700002FA0CF241EA030100F10100704720F077
:102780007F4C80EA030023F07F47ACEB070303F59F
:102790007C5300F0004003F1FF032DE980494FEA2C
:1027A000154B09B44FEA144325EA0B4E24EA0348BB
:1027B0000FF2042606EB132749083E785FEA32023F
:1027C00003FB0667C7F5000707FB06F64FEA543719
:1027D0004FEAD64606F1020607FB066CCCF1005C18
:1027E0004FEA1C472CEA074C07FB06F40CFB06F5E6
:1027F00004EB15464FEA961634BF00204FF0004018
:102800004FEAD13706FB07FC4FEA1C4C0CFB0BF7D9
:10281000D21B03FB0CF761EB07010CFB0EF7B0EBCF
:10282000074072EB17420CFB08F734BFA2EB0742DC
:10283000B2EB074261EB17414FEA0C444FEA9107B4
:1028400006FB07FC4FEA1C4C0CFB0BF7B0EBC74038
:1028500072EB573203FB0CF734BFA2EBC742B2EB6B
:10286000C74261EB57310CFB0EF7B0EBC70072EBC0
:1028700057720CFB08F734BFA2EBC702B2EBC702DA
:1028800061EB5771039F4FEA816141EA921104EBBA
:10289000CC044FEAD1374FEA826206FB07FC42EADA
:1028A00090124FEA80604FEA1C4C0CFB0BF7D21BD6
:1028B00003FB0CF761EB07010CFB0EF7B0EB0740D5
:1028C00072EB17420CFB08F734BFA2EB0742B2EBE6
:1028D000074261EB17414FEA8C554FEA910704EB31
:1028E0009C2406FB07FC4FEA1C4C0CFB0BF7B0EBDF
:1028F000C74072EB573203FB0CF734BFA2EBC74261
:10290000B2EBC74261EB57310CFB0EF7B0EBC700DF
:1029100072EB57720CFB08F734BFA2EBC702B2EBA5
:10292000C70261EB577115EB4C254FEA816141EA13
:1029300092114FEA82624FEAD13742EA901206FBC7
:1029400007FC44F100044FEA80604FEA1C4C0CFB8A
:102950000BF7D21B03FB0CF761EB07010CFB0EF727
:10296000B0EB074072EB17420CFB08F734BFA2EB49
:102970000742B2EB074261EB174115EB1C154FEA1A
:10298000813141EA92414FEA823242EA90424FEA73
:1029900080304FEA0C7644F1000448EA03434EEAE3
:1029A0000B484FF0000EB2EB080C71EB030724BF8D
:1029B000624639464EEB0E0E4FF0000B00185241A6
:1029C00049414BEB0B0BB2EB080C71EB03077BF1AE
:1029D000000B24BF624639464EEB0E0E4FF0000B43
:1029E0000018524149414BEB0B0BB2EB080C71EB59
:1029F00003077BF1000B24BF624639464EEB0E0EF7
:102A000051EA020718BF46F0010616EB0E7655F1A3
:102A1000000254F1000103D5BDE88901BDE800883A
:102A2000BDE88901BDE80048B619524141EB0101FA
:102A3000A3F10103704780807F7E7D7C7B7A79786B
:102A4000777676757473727171706F6E6E6D6C6C73
:102A50006B6A6A6968686766666564646363626115
:102A60006160605F5F5E5E5D5D5C5C5B5B5A5A5996
:102A70005958585757565655555554545353525202
:102A80005251515050504F4F4F4E4E4D4D4D4C4C5A
:102A90004C4B4B4B4A4A4A494949484848474747A3
:102AA00047464646454545444444444343434342E0
:102AB000424242414141000046EA0646A3F57053B6
:102AC0004FEA164646EA42564FEAD22242EA4152BD
:102AD00010B54FEAD121A3F1010300F02FF820F047
:102AE000004000F1020C00F0004701EB00501146DD
:102AF000BCF5006F40EA070000D210BDBAF1000F2C
:102B00000AD01CB503B44FF004004FF004014FF09D
:102B100000000FBCBDE810404FF00001BBF1010FF9
:102B2000B9BF04484FF0FF310348002140EA0700D5
:102B300010BD00BFFFFFEF7F0000F07F002B9C4621
:102B400030D477002BD01CB54FEA370703B44FF0D1
:102B500010004FF01001BAF1000F06D0BCF1000FC9
:102B6000DCBF40F0080040F008014FF000000FBC4F
:102B7000BDE810400BF1010BBBF1010F08BF5FEA8C
:102B8000170722BF12F1010211F101014FF00041BC
:102B900043F1000300F0004043EA00007047F9D31E
:102BA0005708D0E746EA064613F1400F4FEA1646AB
:102BB0001FDD13F1200FDFBF16430A46002120332B
:102BC0005B42BED0C3F1200746EA064602FA07F789
:102BD0004FEA164646EA0706C3F1200722FA03F237
:102BE00001FA07F721FA03F14FF0000342EA070266
:102BF000A7E746EA020646EA06464FEA164646EACE
:102C00000106BCBF46EA0646360C4FF000034FF003
:102C100000024FF0000194E72DE9804C9A4693465C
:102C200070B491E8380007C831EA400C48BF34EA74
:102C3000430C03D5FFF7A3FDFFF780FFF0BCBDE811
:102C4000008C2DE9804C9A46934670B491E8380088
:102C500007C831EA400C48BF34EA430C03D5FFF7FC
:102C60008EFDFFF729FFF0BCBDE8008C2DE9804CFC
:102C70009A46934670B491E8380007C810F0804F28
:102C800008BF13F0804F03D100F01AF8FFF756FF8A
:102C9000F0BCBDE8008C2DE9804C9A46934670B498
:102CA00091E8380007C810F0804F08BF13F0804F3C
:102CB00003D100F005F8FFF7FFFEF0BCBDE8008C83
:102CC00020F07F4780EA030023F07F4C07EB0C03E2
:102CD000A3F57C5300F00040A3F1FE0392F0000F37
:102CE00000F0B38095F0000F00F077802DE90149E6
:102CF0004FEA11404FEA144621EA004800FB06FC67
:102D000024EA064708FB06F607FB08F800FB07F76E
:102D100018EB06484CEB164C4FEA124B18EB0748E1
:102D20004FEA15464CEB174022EA0B4E0BFB06FC14
:102D300025EA06470EFB06F607FB0EFE0BFB07F720
:102D40001EEB064E4CEB164C4FF000061EEB074EEA
:102D50004CEB174B18EB0B0840F1000018EB0E0B77
:102D600058EB000840F100008F1A4FF000013CBF03
:102D7000C943661B14BFB5EB040C00213CBFC9431B
:102D8000F61B4FEA17444EEA8E0E27EA04454FEA37
:102D90001C4704FB07622CEA074C05FB07F70CFBFA
:102DA00005F604FB0CFC16EB074642EB174216EB4C
:102DB0000C4642EB1C421BEB060658EB020241415B
:102DC00046EA9E0601D5BDE80189B619524141EB9C
:102DD0000101A3F10103BDE801894FEA14454FEA5F
:102DE000114724EA054621EA074C05FB07F406FBD8
:102DF00007F70CFB06F105FB0CFC11EB074144EB5C
:102E000017444FEA124711EB0C4144EB1C4422EAF1
:102E1000074C05FB07F206FB07F70CFB06F605FB64
:102E20000CFC16EB074642EB174216EB0C4642EB46
:102E30001C456A1854F1000148BF7047B619524149
:102E400041EB0101A3F10103704795F0000F37D06A
:102E50004FEA11424FEA144721EA024624EA074C9E
:102E600002FB07F106FB07F70CFB06F402FB0CFC68
:102E700014EB074441EB17414FEA154714EB0C44A0
:102E800041EB1C4125EA074C02FB07F506FB07F75F
:102E90000CFB06F602FB0CFC16EB074645EB174550
:102EA00016EB0C4645EB1C42121951F1000148BFCC
:102EB0007047B619524141EB0101A3F1010370477C
:102EC0004FEA14454FEA114724EA054621EA074C28
:102ED00005FB07F106FB07F70CFB06F24FF00006B7
:102EE00005FB0CFC12EB074241EB174112EB0C42C5
:102EF00051EB1C4148BF7047921841EB0101A3F10F
:102F00000103704708B51AF0A1FC07280BD1064849
:102F10002AF054FA0120009003480023C822092116
:102F2000C06A23F00BF908BD44040020FEE700004E
:102F300004484FF4807110B5FDF79BFE0249002054
:102F4000087010BD547201201404002070B50446AE
:102F500000F0FEFC38B105202FF0BAF9601E84B2F3
:102F6000F6D2002070BD264823A1FDF7A3FD00285E
:102F7000F4D024A1FDF79EFD0028F3D024A105463E
:102F8000FDF798FD254C18B10830FDF761FD206074
:102F900023A12846FDF78EFD18B1C01DFDF758FD91
:102FA000606021A12846FDF785FD18B1C01DFDF721
:102FB0004FFDA0601EA12846FDF77CFD18B108302A
:102FC000FDF746FDE0601DA12846FDF773FD18B131
:102FD0001030FDF73DFD20611DA12846FDF76AFD7B
:102FE00018B11030FDF734FD60611EA06169FDF776
:102FF0002FFB1EA070BD00002B4D5355423A000020
:103000005472012022706172616D73223A7B00005C
:10301000224E54555F48223A000000001804002058
:103020002250485F48223A002250485F4C223A0022
:10303000225444535F48223A000000002254656D38
:1030400070657261747572655F48223A0000000015
:103050002254656D70657261747572655F4C223AB9
:103060000000000025640D0A000000004F4B000026
:1030700070B53226032586B026E01E48202214A112
:1030800006F0A1F85FF0000400F062FCA8B91D484A
:1030900019A1FDF70FFD70B1694604F037FC50B17E
:1030A000194802230022694600682FF0C1FCFFF78F
:1030B0003FFF06B070BDFFF73BFF64202FF008F91B
:1030C000641CE4B2B442DFD3681EC5B2D5D2F0E7C7
:1030D00041542B514E54503D312C223230332E313D
:1030E00030372E362E3838222C3132332C310D0A1F
:1030F00000000000CC0A00202B514E54503A2030E2
:103100002C220000547201202000002070B5C2B0B3
:103110000E460546FFF70CFF3046FDF70CFD84B266
:103120002DA02146FDF794FA31A22B464FF4807171
:10313000009401A8FDF7ACFA01A933A0FDF788FAC5
:1031400033A101A800F0E0FB28B132A0FDF780FA1E
:10315000002042B070BDFFF7EBFE3046FDF7EBFC00
:1031600082B23048314606F02EF8C72400F0F0FB5A
:1031700058BB2F482CA1FDF79DFC060025D07B21D4
:10318000FDF77CFC7D2105463046FDF7C9FCE5B125
:10319000D8B1441BA01C641CFDF78DF906462246DD
:1031A0002946FDF7E7FC002130460D46315502E087
:1031B0006D1C0D30EDB21FA1FDF77CFC0028F7D18E
:1031C0003046FDF7A7F92846C3E70A202FF080F81C
:1031D000601EC4B2CAD2BBE74A736F6EB0FCB5C4FE
:1031E000B3A4B6C8CAC7A3BA25640D0A000000007C
:1031F00041542B4D50554245583D222573222C30C9
:103200002C302C25640D0A0025730D0A00000000E7
:103210003E000000CAFDBEDDB8FCD0C2CAA7B0DCCB
:103220000D0A0000CC0A00202B4D5355423A0000F5
:1032300054720120226465766963654E616D652272
:103240003A00000030B587B014216846FDF733FD21
:103250000E48016841F04001016000684FF40074BD
:103260000B4D002200F0400021460590284600F05A
:10327000EFFE01AB009401200021022283E8070049
:103280006946284600F0C0FD07B030BDE044025852
:103290000018025826A010B5FDF7DAF94FF4FA74B9
:1032A00002E020462FF014F823A124A000F02CFB0C
:1032B0000028F6D14FF47A602FF00AF822A0FDF72B
:1032C000C7F902E020462FF003F81BA121A000F06F
:1032D0001BFB0028F6D121A0FDF7BAF902E0204639
:1032E0002EF0F6FF14A120A000F00EFB0028F6D16E
:1032F00024A0FDF7ADF902E020462EF0E9FF2748B3
:103300000DA100F001FB0028F6D125A0FDF7A0F9E2
:1033100002E020462EF0DCFF07A126A000F0F4FA20
:103320000028F6D1BDE8104031A0FDF791B90000AA
:103330005253540D0A0000004F4B000041542B52D1
:10334000455345540D0A00004154B2E2CAD40D0A57
:103350000000000041540D0A00000000C5E4D6C37F
:1033600041504E0D0A00000041542B514943534730
:10337000503D312C312C22222C22222C22220D0ACB
:1033800000000000C5E4D6C34D515454BFCDBBA7C7
:10339000B6CBB7FECEF1C6F70D0A000010F10890CB
:1033A000C5E4D6C34D515454B7FECEF1C6F70D0A4D
:1033B0000000000041542B4D495053544152543D9C
:1033C00022383744343554306731372E6D71747478
:1033D000732E6163632E636D63636F6E656E6574D8
:1033E0002E636E222C313838332C340D0A00000045
:1033F000C5E4D6C3CDF8C2E7B2CECAFDCDEAB3C9A3
:103400000D0A000018A010B5FDF722F94FF4FA7468
:1034100002E020462EF05CFF17A119A000F074FA1C
:103420000028F6D11BA0FDF713F902E020462EF08C
:103430004FFF11A11BA000F067FA0028F6D129A0C8
:10344000FDF706F902E020462EF042FF0AA12BA06C
:1034500000F05AFA0028F6D1BDE8104038480D2196
:1034600034A2FDF715B90000C1ACBDD3B7FECEF153
:10347000C6F70D0A0000000053554343455353005F
:1034800041542B4D434F4E4E4543543D312C363025
:103490000D0A0000B6A9D4C4CDF8B9D8D0C5CFA2C2
:1034A0000D0A000041542B4D5355423D222473799F
:1034B000732F383744343554306731372F48373518
:1034C000302F7468696E672F70726F7065727479CF
:1034D0002F706F73742F7265706C79222C300D0A07
:1034E00000000000B6A9D4C4CDF8B9D8CEEFC4A36B
:1034F000D0CDD0C5CFA20D0A0000000041542B4D05
:103500005355423D22247379732F38374434355450
:10351000306731372F483735302F7468696E672F21
:1035200070726F70657274792F736574222C300D10
:103530000A0000004E6574576F726B3A4C54450098
:1035400030040020074905A207A010B500F012F9C9
:10355000BDE810400EA0FDF77BB800005355434373
:1035600045535300B4F10890247379732F383744CE
:10357000343554306731372F483735302F74686908
:103580006E672F7375622F6C6F67696E00000000A5
:103590004E6F646530BDDAB5E3C9CFCFDFB3C9B9CB
:1035A000A60D0A0008B502E064202EF091FE0EA1DF
:1035B0000FA000F0A9F90028F6D11CA0FDF748F8EB
:1035C00020A128A0FFF7A2FD8DF8000002232F48BC
:1035D0000022694600682FF02BFA9DF800102CA0FD
:1035E000FDF736F808BD00005355434345535300DB
:1035F00041542B4D5355423D22247379732F383754
:1036000044343554306731372F483735302F74689C
:10361000696E672F7375622F746F706F2F67657493
:103620002F7265706C79222C300D0A00D7D3C9E84F
:10363000B1B8CDD8C6CBB6A9D4C4B3C9B9A60D0A02
:10364000000000007B226964223A22313233222CAE
:103650002276657273696F6E223A22312E30227D96
:1036600000000000247379732F3837443435543008
:103670006731372F483735302F7468696E672F737D
:1036800075622F746F706F2F6765740024000020BF
:103690006465766963654E756D626572203D2025AF
:1036A000640D0A000122064810B5510200F0D0FC5A
:1036B000BDE8104003490122034802F043BF000067
:1036C0000018025816040020CC0A002070B512A180
:1036D00015A000F019F920B1BDE8704016A0FCF764
:1036E000B7BF1C480D2118A2FCF7D2FF1AA0FCF7A7
:1036F000AFFF1E4C20682EF029FF1D4D28682EF0CC
:1037000025FFFFF77FFE20682EF07CFE2868BDE8CD
:1037100070402EF077BE00002B4D5154545354414D
:1037200054553A20300D0A0041542B4D51545453F6
:10373000544154550D0A0000B7FECEF1C6F7BBB98F
:10374000D4DACFDF0D0A00004E6574576F726B3A02
:103750004E43000030040020D3EBB7FECEF1C6F795
:10376000B6CFBFAAC1ACBDD30D0A00000400002033
:1037700008000020F0B5C1B016460F460546FFF719
:10378000D7FB3846FDF7D7F984B211A02146FCF7E4
:103790005FFF15A22B464FF48071009401A8FCF73F
:1037A00077FF01A916A0FCF753FF17A101A800F0AD
:1037B000ABF828B115A000BFFCF74AFF41B0F0BD3F
:1037C000FFF7B6FB3146384600F09EF813A0F3E74A
:1037D0004A736F6EB0FCB5C4B3A4B6C8CAC7A3BA67
:1037E00025640D0A0000000041542B4D5055424500
:1037F000583D222573222C302C302C25640D0A00D4
:1038000025730D0A000000003E000000CAFDBEDD69
:10381000B8FCD0C2CAA7B0DC0D0A0000CAFDBEDDEC
:10382000B0FCB8FCD0C2CDEAB3C90D0A000000005C
:1038300030B5C5B0DDE948458DE83C000B4606498A
:10384000024604A8FCF710FF04A204A904A0FFF795
:1038500091FF45B030BD000098F208904F4B00003A
:10386000247379732F383744343554306731372F08
:10387000483735302F7468696E672F70726F7065C6
:103880007274792F706F73740000000000B5B7EE8A
:10389000C22AE7B00F4A8DED0C2BB7EEE12A0A9150
:1038A0004FF4AF71B7EEC11A8DED082B06900EA83C
:1038B0008DED041BB7EEE01AB7EEC00A8DEC040BD9
:1038C000FCF7E6FE04A20EA905A0FFF753FF67B0C0
:1038D00000BD000040F30890535543434553530047
:1038E000247379732F383744343554306731372F88
:1038F000483735302F7468696E672F7061636B2F9E
:10390000706F73740000000070B5C8240E46054641
:10391000FDF711F982B20C48294605F054FC0EE07F
:1039200000F016F840B909483146FDF7C3F818B160
:10393000FFF7FEFA002070BD0A2000F053FA601E67
:10394000C4B2EDD2012070BDCC0A00205472012017
:1039500010B50948017851B14278914209D100214E
:103960000170064906A0FCF773FE002010BD01207F
:1039700010BD4170FBE700001404002054720120C8
:103980003447C4A3BFE9BDD3CAD5B5BDB5C4CAFDCC
:10399000BEDDA3BA25730D0A0000000070470000C9
:1039A00008B519F053FF07280BD1064828F0E0FFAF
:1039B0000120009003480023C8220921806F22F0D3
:1039C000BDFB08BD4404002008B519F03FFF0728DF
:1039D0000CD1074828F020FB012000900448002368
:1039E000C8220721D0F8840122F0A8FB08BD0000FE
:1039F0004404002008B519F029FF07280CD1074816
:103A000029F0EEFF0120009004480023C82209217C
:103A1000D0F81C0122F092FB08BD000044040020F5
:103A20007047000000221C21012010B52EF05AFF23
:103A30000A4C00221821A06101202EF053FF002221
:103A4000E061182101202EF04DFF012120620022AB
:103A500008462EF047FF606210BD00000000002005
:103A60002DE9F041012417460D46064604F06AFE92
:103A7000304600F061F8C0B904F064FEBB2004F0E9
:103A8000D9FE012811D16E1E002409E0B44201D1F3
:103A9000002000E0012004F025FE3855641CE4B24B
:103AA000AC42F3D304F072FE002404F06FFE204613
:103AB000BDE8F08170B504F003FF144C00224FF410
:103AC0000061204600F0C4FA0122204695022946F2
:103AD00000F0BEFA42F2107004F064FD00222946A4
:103AE000204600F0B5FA0A4804F05CFD01222946A0
:103AF000204600F0ADFA074804F054FD04F0CAFE79
:103B0000BDE8704044F6206004F04CBD002002582F
:103B1000F04902003057050070B50D46044604F028
:103B200011FE204600F008F810B9284604F082FE85
:103B300004F02CFE002070BD10B5044604F002FE17
:103B4000BA2004F077FE012807D1200A04F072FEA3
:103B5000012802D1E0B204F06DFE002010BD00008B
:103B60002DE9F05F28B190F83510022904D08021AA
:103B700041650120BDE8F09F904C904B0168183CD6
:103B800018338E4ADFF83C92A1428D4CDFF838E2C0
:103B90008E4FDFF83CB2DFF83CA28F4D8F4E31D014
:103BA00091422FD099422DD0A1422BD0494529D006
:103BB000714527D0B94225D0DFF810C20CF1180C9E
:103BC00061451FD0DFF808C2ACF1600C614519D027
:103BD000DFF8FCC1ACF1480C614513D0DFF8F0C14F
:103BE000ACF1300C61450DD0DFF8E4C1ACF1180C3C
:103BF000614507D0594505D0514503D0A94201D0B0
:103C0000B1422CD1DFF8B4C14FF0040880F8358000
:103C1000ACF1180C61451DD091421BD0994219D0CE
:103C2000A14217D0494515D0714513D0B94211D0E2
:103C30006648183081420DD065486038814209D00D
:103C400063484838814205D061483038814201D00C
:103C50005F481838086820F001000860ABE0D1F830
:103C600000C02CF00E08DFF854C1C1F80080ACF1A0
:103C7000180C0168614527D0914225D0994223D084
:103C8000A14221D049451FD071451DD0B9421BD05A
:103C9000DFF838C10CF1180C614515D0DFF830C1E0
:103CA000ACF1600C61450FD0DFF824C1ACF1480CD9
:103CB000614509D0DFF818C1ACF1300C614503D083
:103CC000DFF80CC1ACF1180CD1F800C02CF0010CDD
:103CD000C1F800C0DFF8E4804FF0010C0168A8F1E2
:103CE0001808414546D0914244D0994242D0A14261
:103CF00040D049453ED071453CD0B9423AD0334AD4
:103D00001832914236D0324A603A914232D0304A2B
:103D1000483A91422ED02E4A303A91422AD02C4A2B
:103D2000183A914226D0594524D0514522D0A94273
:103D300020D0B1421ED02A4A91421BD0284A1432C8
:103D4000914217D0264A2832914213D0244A3C325D
:103D500091420FD0224A503291420BD0204A643215
:103D6000914207D01E4A7832914203D01C4A8C32CD
:103D7000914218D1016E0A6822F480720A6090F8AC
:103D80005C20816D02F01F020CFA02F24A60D0E959
:103D900019124A60C16E31B10A6822F480720A6059
:103DA000D0E91C124A600022016D80F8342080F8AE
:103DB00035C001B188470020DCE600002800024041
:103DC000580002407000024088000240A0000240FB
:103DD0007004024088040240A0040240B80402407B
:103DE0000854025870B5044600F03EF90546601CC0
:103DF00002D004480078044400F036F9401BA04289
:103E0000FAD370BD940000202DE9FC4F01257E4CB3
:103E100000234FF0030A4FF0B04E4FF00F0BEBE0D2
:103E200005FA03F637403A0077D04F68012F05D0E6
:103E3000022F03D0112F01D0122F1AD187684FEA19
:103E40004308D1F80CC00AFA08F927EA09070CFA66
:103E500008FC4CEA070CC0F808C0476891F804C099
:103E6000B743CCF3001C0CFA03FC4CEA070CC0F877
:103E700004C0C6684FEA430CD1F80880E1460AFA4C
:103E80000CF7BE43019708FA09F848EA0608C0F89B
:103E90000C804E68022E01D0122E12D1DE084FEA9D
:103EA000437C00EB860600960F69366A4FEADC6CAD
:103EB0000BFA0CF807FA0CF726EA08063743009EBF
:103EC00037620E790768DDF804C006F0030606FACB
:103ED00009F627EA0C073E4306604E68F6001CD53B
:103EE0004A4E376847F00207376036689F0706F08A
:103EF0000206009623F0030606F1B046B1463F0FD6
:103F0000D6F80864DFF808810BFA07FC404526EA7A
:103F10000C0603D14FF0000C41E06CE0DFF8F4C078
:103F2000604502D14FF0010C39E0DFF8ECC060458C
:103F300002D14FF0020C32E0DFF8E0C0604502D160
:103F40004FF0030C2BE0DFF8D8C0604502D14FF0F2
:103F5000040C24E0DFF8CCC0604502D14FF0050C22
:103F60001DE0DFF8C4C0604502D14FF0060C16E03A
:103F7000DFF8B8C0604502D14FF0070C0FE0DFF862
:103F8000B0C0604502D14FF0080C08E0DFF8A4C0D3
:103F9000604502D14FF0090C01E04FF00A0C0CFA19
:103FA00007FC4CEA060CC9F808C426684F6826EAE4
:103FB0000206FF0300D51643266066684F6826EAAE
:103FC0000206BF0300D516436660D1F804C07646EA
:103FD000DEF800705FEACC2C27EA020700D5174311
:103FE0003760D1F804C077685FEA8C2C27EA0207B3
:103FF00000D5174377605B1C0A681746DA407FF4E8
:104000000FAFBDE8FC8F000080000058F444025858
:10401000000002580004025800080258000C025820
:10402000001002580014025800180258001C0258D0
:1040300000200258002402580069084000D00120E6
:104040007047426931EA020200D109048161704778
:104050000AB1816170470904FBE70000014800686C
:10406000000C70470010005C014880687047000039
:1040700094000020024881680278114481607047F2
:1040800094000020032010B500F00EFA01F09EF914
:104090000F4A104914681368C4F3032203F00F0396
:1040A0008A5CC95C02F01F0201F01F01D0400A4A7D
:1040B00020FA01F1116009490860002000F010F8B1
:1040C00008B1012010BD00F0B3F9002010BD0000C0
:1040D00018440258A8350390A4000020A000002036
:1040E00010B5102804468AB02CD200220146362092
:1040F00000F0BAF9362000F0A9F917480460174813
:10410000016841F010010160006809A900F0100089
:104110000890684601F0E6F80598B0B101F032F970
:1041200040000F4900220F4CB0FBF1F10E4840F265
:10413000E7330460C0E90332491EC0E9011201F00F
:10414000B5FC28B101200AB010BD01F01BF9E8E769
:10415000054801F0F1FCF6E798000020E844025819
:1041600040420F0000100040F40900202DE9F0410A
:10417000044690F8A00016460F4601281DD00125E0
:1041800084F8A050022084F8A10006EB860000EB22
:10419000C600342204EB80003830FCF730FD324694
:1041A0003946204602F072FD216800204D6284F8F5
:1041B000A15084F8A000BDE8F0810220FBE70000D8
:1041C0002DE9F041040004D094F8A100002518B1B5
:1041D00007E00120BDE8F081204684F8A05000F0FF
:1041E0006BF83448022184F8A110012202CC8B69BB
:1041F00023F070438B6194E84A001943E3681E433F
:1042000054F8043D31439E693143996121688B68BC
:1042100003408B602168A68AA7698B683B4343EA09
:1042200006438B602168CB680340CB602168A38B79
:10423000276ACE683E4346EA0346CE6021680B6992
:1042400003400B612368A68CA76A1969394341EAC8
:104250000641196121684B6903404B612068A38DB9
:10426000266B4169314341EA03414161236894F877
:10427000351094F83600DE6A000406F07F46DE62F0
:10428000236840EA012094F83460D96A314301433D
:10429000D9622068416B41F0060141632068816961
:1042A00041F001018161C4F8A45084F8A1200020EC
:1042B00090E7000000F800F030B587B00446142104
:1042C0006846FCF7F8FC2E492068884255D12D48F5
:1042D000016841F008010160006800F008000590E5
:1042E0002848001F016841F480610160016801F401
:1042F00080610591016841F400710160016801F479
:1043000000710591016841F480710160016801F458
:1043100080710591016841F48071016000680E228E
:104320000024029400F48070059002200321FF23F2
:10433000CDE90312CDE9003013486946FFF764FD6B
:104340004FF6FF70009011486946FFF75DFD104D74
:104350004FF47040694600902846FFF755FD042051
:1043600001218DE81300694628460394FFF74CFDB0
:10437000002228460421FFF76BFE07B030BD000085
:1043800000100050E444025800280258002402584B
:1043900000200258F0B5154C4378211D0A1D2360FA
:1043A0000378F3B143680B60057BC67A817A437B5F
:1043B0002D07847B45EA0665C77B90F809C0067A1D
:1043C00090F800E045EAC14040EA834040EA4440BA
:1043D00040EA074040EA0C2040EA460040EA0E006E
:1043E00001E0002008601060F0BD000098ED00E0E2
:1043F000BFF35F8F044800210368034A23F480332E
:10440000036070321160704724ED00E0074A40F00D
:104410000100064970321060086840F4803008607E
:10442000BFF34F8FBFF36F8F7047000024ED00E0A4
:10443000054808B5016841F002010160006800F01C
:104440000200009008BD0000F4440258002809DB77
:10445000410900F01F028900012001F1E021904094
:10446000C1F80001704700000E4BF0B41B680D4608
:10447000C3F30223C3F10706042E00D90426191D35
:10448000072901D2002300E0DB1E012404FA06F113
:104490009C40491E2940641E994014402143F0BCB1
:1044A00004F0B5BE0CED00E0064900F0070210B5BF
:1044B0004FF6FF040868044B204040EA02201843EE
:1044C000086010BD0CED00E00000FA05134970B55E
:1044D0000A68D243520705D5096801F007018142F5
:1044E00013D118E00A6822F0070202430A60FFF7BE
:1044F000BBFD0A4D4FF47A760446083D07E000BF45
:10450000FFF7B2FD001BB04201D9012070BD286841
:10451000C0438004F4D4002070BD00000C48025851
:1045200010B500F00DFF05490968054AC1F30211F5
:10453000515C01F01F01C84010BD0000204402582A
:10454000A8350390494930B5484C0B1D0A6814340E
:1045500009681D68246802F00303C5F30012C1F363
:104560000531C4F3CC04002914FB02F200EE102A3A
:10457000F8EE400A75D03F4A9FED3D1AB7EE000AAB
:104580006BB1DFED3D1A012B01D0022B64D002EE9E
:10459000101A1168F8EE422A81EEA22A21E0334C6B
:1045A000283C23689B0612D5344B246801EE901AF0
:1045B0001168C4F3C104F8EE612AE34001EE903AB9
:1045C000C1F30801F8EE611A81EEA22A0BE001EEB8
:1045D000901ADFED2B2A00BFF8EE611A116882EE07
:1045E000A12AC1F3080101EE901A1168F8EE611AD0
:1045F00040EE811A71EE800A62EE200AC1F3462174
:1046000001EE101AB8EE411A31EE001AC0EE811A0E
:10461000BCEEE11A80ED001A1168C1F3064101EE0B
:10462000101AB8EE411A31EE001AC0EE811ABCEE33
:10463000E11A80ED011A1168C1F3066101EE101A4A
:10464000B8EE411A31EE000A80EE801ABCEEC10AC3
:1046500080ED020A30BD04E001EE901ADFED092A78
:10466000BAE70021016041608160F3E72844025805
:1046700000000039384402580024744A0090D003E6
:104680000024744C20BCBE4B494930B5484C0B1D2E
:104690000A681C3409681D68246802F00303C5F326
:1046A0000022C1F30551C4F3CC04002914FB02F22B
:1046B00000EE102AF8EE400A75D03F4A9FED3D1AF1
:1046C000B7EE000A6BB1DFED3D1A012B01D0022BD2
:1046D00064D002EE101A1168F8EE422A81EEA22A86
:1046E00021E0334C283C23689B0612D5344B2468C8
:1046F00001EE901A1168C4F3C104F8EE612AE34098
:1047000001EE903AC1F30801F8EE611A81EEA22A97
:104710000BE001EE901ADFED2B2A00BFF8EE611AD4
:10472000116882EEA12AC1F3080101EE901A116806
:10473000F8EE611A40EE811A71EE800A62EE200AEC
:10474000C1F3462101EE101AB8EE411A31EE001AFB
:10475000C0EE811ABCEEE11A80ED001A1168C1F3B7
:10476000064101EE101AB8EE411A31EE001AC0EE01
:10477000811ABCEEE11A80ED011A1168C1F30661DD
:1047800001EE101AB8EE411A31EE000A80EE801ADE
:10479000BCEEC10A80ED020A30BD04E001EE901AC1
:1047A000DFED092ABAE70021016041608160F3E78B
:1047B0002844025800000039404402580024744A3A
:1047C0000090D0030024744C20BCBE4B2DE9FC5F4C
:1047D000044650F8241B002500902E460801FE4F89
:1047E000DFF8F8831DD5606E50B1B0F5801F0CD096
:1047F000B0F5001F0ED0B0F5401F1DD001250FE011
:10480000386840F40030386016E00221201D03F0C3
:10481000C5F803E00098022103F050F905000BD021
:104820002E462088C00523D5606D05281ED2DFE8FE
:1048300000F00C11161B1B00626ED8F8001021F45A
:1048400040111143C8F80010EBE7386840F400301D
:10485000386009E00021201D03F0A0F803E0009873
:10486000002103F02BF905466DB100E001252E462D
:104870002088800528D5A06D80281ED00CDC90B142
:1048800040280ED114E0626DD8F8001021F0070125
:104890001143C8F80010EBE7C02813D0B0F5807FB3
:1048A00010D001250FE0386840F40030386009E08E
:1048B0000021201D03F072F803E00098002103F0AE
:1048C000FDF8054695B12E462088DFF81093400587
:1048D00009F108092CD5D4F8A400B0F5800F20D038
:1048E0000DDCA0B1B0F5001F0FD115E0A26DD8F816
:1048F000001021F4E0711143C8F80010E4E7B0F5AE
:10490000C00F13D0B0F5000F10D001250FE03868AC
:1049100040F40030386009E00021201D03F03EF82B
:1049200003E00098002103F0C9F8054675B12E4652
:10493000208800052DD5D4F8A800B0F1007F21D043
:104940000EDCA8B1B0F1807F10D116E0D4F8A4201D
:10495000D9F8001021F460011143C9F80010E7E70D
:10496000B0F1407F13D0B0F1806F10D001250FE07F
:10497000386840F40030386009E00021201D03F061
:104980000DF803E00098002103F098F805466DB19A
:104990002E46206880011FD5A06CD8B110280FD0FA
:1049A000202812D0302815D0012514E0D4F8A820F2
:1049B000D9F8001021F0E0611143C9F80010E8E7D0
:1049C000386840F40030386004E00221201D02F015
:1049D000E5FF05466DB12E462088C0042BD5E06D5D
:1049E000B0F5005F20D00DDCA0B1B0F5805F0FD135
:1049F00015E07A48A26C001F016821F030011143D4
:104A00000160E9E7B0F5405F13D0B0F5804F10D0FA
:104A100001250FE0386840F40030386009E00021DB
:104A2000201D02F0BBFF03E00098002103F046F8D0
:104A3000054685B12E462088800429D5206EB0F524
:104A4000403F23D010DC08B3B0F5803F14D0B0F560
:104A5000003F0FD115E0E26DD8F8001021F4E041DD
:104A60001143C8F80010E6E7B0F5802F0ED0B0F57E
:104A7000A02F0BD001250AE00121201D02F08EFF9E
:104A800003E00098012103F019F805468DB12E4688
:104A9000208840042AD5D4F8AC00B0F1405F23D080
:104AA00010DC08B3B0F1805F14D0B0F1005F0FD11B
:104AB00015E0226ED8F8001021F4E0211143C8F867
:104AC0000010E5E7B0F1804F0ED0B0F1A04F0BD051
:104AD00001250AE00121201D02F060FF03E000989B
:104AE000012102F0EBFF05466DB12E46208800043F
:104AF0001FD5E06ED8B1B0F1805F0ED0B0F1005F8D
:104B000010D0012514E0D4F8AC20D9F8001021F021
:104B1000E0411143C9F80010E8E7386840F400307C
:104B2000386004E00121201D02F038FF05466DB118
:104B30002E462068C0011ED5606CD0B101280ED071
:104B4000022811D0032814D0012513E0E26ED8F812
:104B5000001021F040511143C8F80010E9E738680F
:104B600040F40030386004E00221201D02F016FFFE
:104B7000054685B12E462068DFF85CB04002ABF1F7
:104B80001C0B57D51648016841F480710160FFF78E
:104B90006BFA82460EE01148626C001F016821F03A
:104BA000030111430160E6E7FFF75EFAA0EB0A009C
:104BB00064283DD80A480068C005F5D57DBBDFF8FC
:104BC0001CA0B4F8B0100AF1200ADAF8000001F4D1
:104BD000407100F4407005E02C44025850440258E3
:104BE00000480258884211D0DAF80010DAF80020A4
:104BF00021F4407142F48032CAF80020DAF8002033
:104C000022F48032CAF80020CAF80010D4F8B000AC
:104C1000B0F5807F21D1FFF727FA019019E008E075
:104C2000FFF722FA0199411A41F28830814210D9E6
:104C300003252E462078DFF830A4C0073DD0A06FB2
:104C4000182838D026DC80B3082829D0102825D190
:104C50002CE0DAF800008007E2D5D4F8B010C1F3F8
:104C60000120032858460DD0016821F47C510160D1
:104C7000B4F8B020DAF80010C2F30B021143CAF8FE
:104C80000010D7E7F94A036802EA111223F47C51B5
:104C90001143ECE720280ED028280CD001250BE08A
:104CA0000121201D02F07AFE04E004E000980121B9
:104CB00002F004FF05465DB12E46207880071ED520
:104CC000606F062819D2DFE800F0160C11161616D0
:104CD000A26FDAF8001021F038011143CAF8001071
:104CE000EBE70121201D02F059FE03E000980121AD
:104CF00002F0E4FE054675B100E001252E4620785D
:104D000040071FD5D4F89000062819D2DFE800F03C
:104D1000160C11161616626FDAF8001021F0070152
:104D20001143CAF80010EAE70121201D02F036FE07
:104D300003E00098012102F0C1FE05469DB100E0AC
:104D400001252E46207880062BD5D4F88C00B0F1B2
:104D5000405F24D011DC10B3B0F1805F15D0B0F10A
:104D6000005F10D116E0D4F89020D9F8001021F09F
:104D700007011143C9F80010E4E7B0F1804F0ED0ED
:104D8000B0F1A04F0BD001250AE00021201D02F058
:104D900005FE03E00098022102F090FE05468DB169
:104DA0002E46207840062BD5D4F89800B0F5406FF9
:104DB00024D011DC10B3B0F5806F15D0B0F5006FC2
:104DC00010D116E0D4F88C20DAF8001021F0E04180
:104DD0001143CAF80010E4E7B0F5805F0ED0B0F5DB
:104DE000A05F0BD001250AE00021201D02F0D6FDB6
:104DF00003E00098022102F061FE05468DB12E46C7
:104E0000207800062BD5D4F89C00B0F5C04F24D0F4
:104E100011DC10B3B0F5005F15D0B0F5804F10D1A4
:104E200016E0D4F89820D9F8001021F4E05111438D
:104E3000C9F80010E4E7B0F5004F0ED0B0F5204FF0
:104E40000BD001250AE00021201D02F0A7FD03E0A0
:104E50000098022102F032FE05464DB12E46207820
:104E600000071ED5D4F88000B0F5805F0AD00FE0AF
:104E7000D4F89C20D9F8001021F460411143C9F8FE
:104E80000010ECE70098022102F018FE00B10126A4
:104E9000D4F88020DAF8001021F440511143CAF808
:104EA00000102078C00613D5D4F89400B0F5807FA8
:104EB00005D10098022102F001FE00B10126D4F8CC
:104EC0009420D9F8001021F440711143C9F8001062
:104ED0002068000316D5D4F8A00038B1B0F5803FA3
:104EE00009D0B0F5003F0BD001250AE00021201DBC
:104EF00002F054FD03E00098022102F0DFFD0546B8
:104F000085B12E462068400322D5D4F88400B0F540
:104F1000801F11D0B0F5001F13D0B0F5401F15D081
:104F2000012514E0D4F8A020D9F8001021F4403174
:104F30001143C9F80010E5E7386840F400303860E4
:104F400004E00098012102F0B9FD054655B12E4656
:104F50002068C0031CD5E06C70B1B0F5803F10D064
:104F6000012514E0D4F88420DAF8001021F440116F
:104F70001143CAF80010EBE7386840F4003038609D
:104F800004E00221201D02F009FD0546CDB12E46A8
:104F90002068800005D50098022102F08FFD00B145
:104FA0000126206880031BD5E06FB8B1B0F5807F83
:104FB00010D0B0F5007F11D0B0F5407F0ED00125A4
:104FC0000DE02948E26C0838016821F48031114372
:104FD0000160DDE7386840F400303860F5B32E46F4
:104FE0002068C00207D5226FD8F8001021F00041D8
:104FF0001143C8F800102068C00008D5D4F8B420C8
:10500000DBF8001021F480411143CBF80010206838
:10501000800207D5A26ED8F8001021F080711143EC
:10502000C8F80010206840000CD5DBF8001021F40F
:105030000041CBF80010DBF80010D4F8B820114381
:10504000CBF800102068002807DA0748226D0838DE
:10505000016821F040511143016000E008E086B191
:105060000120BDE8FC9F000054440258CFFFFF0020
:10507000E26FDAF8001021F440711143CAF8001011
:10508000AEE70020EDE700002DE9F05F04000F46D9
:105090007ED0DFF83882D8F8000000F00F00B84268
:1050A0000CD2D8F8001021F00F013943C8F80010D5
:1050B000D8F8000000F00F00B84269D12078844D84
:1050C00040070AD52069296801F07001884204D997
:1050D000296821F070010143296020787C4E361D3B
:1050E00000070AD56069316801F07001884204D96F
:1050F000316821F07001014331602078C0060AD583
:10510000A069316801F4E061884204D9316821F472
:10511000E061014331602078DFF8B4B180060BF123
:10512000080B0CD5E1695846DBF8002002F070024C
:10513000914204D9026822F070020A43026020788A
:1051400080070AD5E068296801F00F01884204D978
:10515000296821F00F01014329602078C0073ED063
:105160005B49A2682868183920F4706010432860F1
:105170006068022818D0032819D00968012819D0BE
:10518000490700294ADADFF848A1AAF1080A00E035
:1051900044E0DAF8002022F007020243CAF80020B7
:1051A000FEF762FF814612E009688903E9E70968B2
:1051B0008901E6E7C905E4E7FEF756FFA0EB090120
:1051C00041F28830814202D90320BDE8F09F616836
:1051D000DAF8000000F03800B0EBC10FECD1207815
:1051E00080070AD5E068296801F00F01884204D2DF
:1051F000296821F00F0101432960D8F800104046CA
:1052000001F00F01B9420BD9016821F00F013943B8
:105210000160006800F00F00B84201D00120D4E71F
:10522000207840070AD52069296801F0700188427A
:1052300004D2296821F07001014329602078000719
:105240000AD56069316801F07001884204D2316882
:1052500021F07001014331602078C0060AD5A069B1
:10526000316801F4E061884204D2316821F4E061E0
:1052700001433160207880060CD5E1695846DBF89F
:10528000002002F07002914204D2026822F0700203
:105290000A43026000F09AF80E492A682B68C2F3AC
:1052A000032203F00F038A5CC95C02F01F0201F0C5
:1052B0001F01D040084A20FA01F111600749086037
:1052C00007480068BDE8F05FFEF70ABF0020005203
:1052D00018440258A8350390A4000020A000002024
:1052E0009800002070B5144C3F220260124A2468D6
:1052F0000832131D114D04F00704446016681C1D8C
:1053000006F470668660166806F00F06C6601268BE
:1053100002F0700202611A6802F0700242611A68BB
:1053200002F4E0628261226802F07002C2612868C1
:1053300000F00F00086070BD1044025800200052B9
:1053400030B500F043F80B4A0B490C4B1568146854
:10535000C5F3032204F00F048A5C095D02F01F020A
:1053600001F01F01D040064A20FA01F119601060D7
:10537000084630BD18440258A8350390A400002008
:10538000A000002000B5FFF7DBFF05490968054ACA
:10539000C1F30211515C01F01F01C84000BD0000C3
:1053A0001C440258A835039000B5FFF7C9FF054912
:1053B0000968054AC1F30221515C01F01F01C84090
:1053C00000BD00001C440258A8350390454970B543
:1053D00045480968434B103B11F0380208D00111D1
:1053E000082A03D0102A0BD0182A0BD0084670BD0B
:1053F00019688906FBD51968C1F3C101C84070BDA1
:105400003A4870BD3749374D18310C1D24350A68AC
:10541000096826682D6802F0030406F00102C1F352
:105420000511C5F3CC0515FB02F200EE102AB8EE0B
:10543000400AE9B32F4ADFED2E0AB7EE001A6CB12D
:10544000DFED2D1A012C01D0022C43D002EE101AF0
:105450001068F8EE422A81EEA22A1EE01C68A4061B
:1054600011D51B6801EE901A1168C3F3C103F8EE61
:10547000612AD84001EE900AC1F30800F8EE611AE3
:1054800081EEA22A0BE001EE901ADFED1C2A00BF8C
:10549000F8EE611A106882EEA12AC0F3080001EE4E
:1054A000900AF8EE611A40EE201A31EE810A00E00F
:1054B00015E022EE000A1068C0F34620401C00EE02
:1054C000900AF8EE600A80EE201ABCEEC10A10EED7
:1054D000100A70BD01EE901ADFED092AD8E700200E
:1054E00070BD0000104402580090D00340787D0148
:1054F00000000039304402580024744A0024744CDF
:1055000020BCBE4B2DE9F05F04007CD0FF4F20781B
:10551000FE4D1837DFF8F493103DC00748D0D9F896
:105520000000396800F03800102815D0182803D181
:1055300001F0030002280FD06068B0F5803F12D060
:1055400010B1B0F5A02F18D0286820F48030286062
:10555000286820F4802009E02868800328D5606846
:105560000028D2D024E0286840F4803028606068A9
:1055700088B1FEF779FD064609E0286840F48020EE
:105580002860F0E7FEF770FD801B64287ED828684D
:105590008003F7D50CE0FEF767FD064605E000BF87
:1055A000FEF762FD801B6428F0D828688003F7D4DA
:1055B000207841F20308D54E0C3E800753D5D9F828
:1055C0000000396810F038000ED0182801D1880783
:1055D0000AD0E068A8B3296821F0190101432960C5
:1055E000FEF742FD82461BE02868400702D5E068CE
:1055F00000288AD0FEF732FD40451BD8206940289C
:1056000012D0316800E0CCE021F47C3141EA003076
:10561000306028E0FEF728FDA0EB0A000228B5D88C
:1056200028684007F6D5E5E7306820F47C3040F480
:105630000030EDE7207C316821F0FE4141EA006056
:10564000E6E7FFE7286820F001002860FEF70CFD80
:10565000824605E0FEF708FDA0EB0A00022895D877
:1056600028684007F6D42078C0065FD5D9F8000036
:10567000DFF898B2396800F03800ABF1040B082865
:1056800012D0182805D101F0030000E0EAE001285B
:105690000AD0E0690028286838D040F080002860EF
:1056A000FEF7E2FC824623E02868C00523D5E069C6
:1056B000802876D11FE0206A202821D0316821F08F
:1056C000F84141EA8060306030E000BF94F820107B
:1056D000DBF8002022F07C5242EA0161CBF8001096
:1056E00024E000BFFEF7C0FCA0EB0A00022896D819
:1056F0002868C005F6D5FEF7B1FC4045E6D8DAE7E4
:10570000306820F0F84040F08040DCE720F0800076
:105710002860FEF7A9FC064605E000BFFEF7A4FCE2
:10572000801B02289BD82868C005F7D42078000782
:1057300029D576486169643000298046016811D016
:1057400041F001010160FEF78FFC064605E000BF55
:10575000FEF78AFC801B0228C9D8D8F80000800711
:10576000F6D510E021F001010160FEF77DFC064650
:1057700005E000BFFEF778FC801B022872D8D8F83D
:1057800000008007F6D42078800623D5A069002881
:10579000286810D040F480502860FEF765FC06466B
:1057A00005E02CE1FEF760FC801B02285AD828682F
:1057B0008004F7D50EE020F480502860FEF754FCFA
:1057C000064604E0FEF750FC801B02284AD82868F1
:1057D0008004F7D4207840074FD5DFF83481D8F81B
:1057E000001041F48071C8F80010FEF73DFC064639
:1057F00005E000BFFEF738FC801B642832D8D8F8DB
:105800000000C005F6D5414EA068603601280AD0D8
:1058100008B1052813D0306820F0010030603068EE
:1058200020F0040002E0306840F001003060A06821
:1058300041F2883A90B1FEF717FC80460AE03068E2
:1058400040F004003060EEE7FEF70EFCA0EB08012C
:10585000514507D830688007F6D50EE0FEF704FC06
:10586000804607E084E000BFFEF7FEFBA0EB0801E6
:1058700051457DD830688007F6D4606AF0B3DFF810
:105880008C80D9F8001008F12008C1F3C201032967
:105890006FD00228286820F08070286003D0FEF7BF
:1058A000E3FB044680E0FEF7DFFB064605E000BFB1
:1058B000FEF7DAFB801B022873D828688001F7D432
:1058C000E26A40F2F331386854F8283F884340EAEE
:1058D000021018433860217B4FF4FE0C22894FF0F0
:1058E000FE47208A4902267D521E401EA1F5007106
:1058F00089B20CEA0040C2F3080200E081E01143E3
:10590000761E0143014807EA066203E0104402588C
:10591000004802581C3011433B4AC8F80010016887
:1059200021F00101016011684FF6F876236AB14356
:1059300041EAC30111600168A26921F00C01114321
:1059400001600168E26921F0020111430160016810
:1059500041F480310160016841F400310160016867
:1059600041F480210160016841F00101016001E022
:1059700017E01DE0286840F080702860FEF774FB97
:10598000044604E0FEF770FB001B022809D82868D3
:105990008001F7D535E000BFFEF766FB001B02284B
:1059A00002D90320BDE8F09F28688001F4D428E0E4
:1059B00039680128D8F8000021D0A26A01F0030359
:1059C00093421CD1E26AC1F305118A4217D1216BBF
:1059D000C0F30802491E8A4211D1616BC0F346220E
:1059E000491E91420BD1A16BC0F30642491E914260
:1059F00005D1E16BC0F30660491E814201D0012050
:105A0000D0E70020CEE700003444025870477047CA
:105A100070470000F0B590F83C20012A38D01D4EA8
:105A2000012480F83C40022280F83D2002681A4D93
:105A30005368B242D2F808C001D0AA4203D14F68DD
:105A400023F470033B430F6823F070031F43576038
:105A50000268B24210D0B2F1804F0DD00F4B9A4283
:105A60000AD00F4B9A4207D00E4B9A4204D0AA425A
:105A700002D00D4B9A4204D189682CF0800319435F
:105A80009160002180F83D4080F83C100846F0BD50
:105A90000220F0BD0000014000040140000400406D
:105AA00000080040000C00400018004010B5040041
:105AB00003D094F83D0010B107E0012010BD002094
:105AC00084F83C00204600F023F8022084F83D00D2
:105AD0002068211D02F00CFB012084F8480084F8A6
